S00C0000756E6F312E7372656395
S11300000C9434000C9448000C9446000C94460064
S11300100C9446000C9446000C9446000C94460044
S11300200C9446000C9446000C9446000C94460034
S11300300C9446000C9446000C9446000C94460024
S11300400C9446000C9446000C9446000C94460014
S11300500C9446000C9446000C9446000C94460004
S11300600C9446000C94460011241FBECFEFD8E038
S1130070DEBFCDBF21E0A0E0B1E001C01D92A13000
S1130080B207E1F70E9459000C946E000C94000032
S11300901F920F920FB60F9211248F93809100013B
S11300A08F5F809300018F910F900FBE0F901F9070
S11300B01895249A52985A9A809169008260809384
S11300C06900809169008E7F80936900E89A789432
S11300D0809100018530F0F32C9AFACFF894FFCF89
S9030000FC
